:020000040800F2
:10000000D80B00207D0200085D3A00085F3A000826
:10001000633A0008673A00086B3A000800000000E5
:100020000000000000000000000000006F3A00081F
:10003000713A000800000000733A0008753A0008A1
:10004000970200089702000897020008970200082C
:10005000970200089702000897020008970200081C
:10006000970200089702000897020008970200080C
:1000700097020008970200089702000897020008FC
:10008000D528000897020008970200089702000888
:1000900097020008970200089702000897020008DC
:1000A00097020008970200089702000897020008CC
:1000B00097020008970200089702000897020008BC
:1000C00097020008970200089702000897020008AC
:1000D00097020008F3220008970200089702000820
:1000E000970200089702000897020008970200088C
:1000F000970200089702000897020008970200087C
:10010000970200089702000897020008970200086B
:1001100097020008FB3900089702000897020008C0
:10012000970200089702000897020008970200084B
:10013000970200089702000897020008970200083B
:10014000970200089702000897020008970200082B
:1001500097020008CD2200089702000897020008C5
:10016000970200089702000897020008970200080B
:1001700097020008970200089702000897020008FB
:100180009702000897020008DFF80CD003F086FF02
:10019000004800473D3A0008D80B0020324901438F
:1001A000324A1160704770B5002100230F22C478D5
:1001B0001CB32E4C246804F4E064C4F5E064C4F37A
:1001C0000721C1F10404E3B20A4144789C40E1B242
:1001D0008478144021430C07210E254C0578615585
:1001E000047804F01F050124AC4005786D11AD00C2
:1001F00005F1E025C5F8004109E0047804F01F0589
:100200000124AC401B4D0678761145F8264070BDA0
:10021000194A0A400243154B1B1F1A60704739B137
:10022000124A121D12680243104B1B1D1A6006E091
:100230000E4A121D126882430C4B1B1D1A60704738
:10024000042808D14FF0E021096941F004014FF082
:10025000E022116107E04FF0E021096921F004017B
:100260004FF0E022116170470000FA050CED00E04C
:1002700000E400E080E100E080FFFF1F06488047C7
:1002800006480047FEE7FEE7FEE7FEE7FEE7FEE77B
:10029000FEE7FEE7FEE7FEE7C91F00088901000848
:1002A000016821F00101016000210160416081606D
:1002B000C160016121214161DB49884204D13D21B6
:1002C000D94A103A91608CE0D7491831884205D15B
:1002D0004FF47461D44A103A916082E0D2493031CF
:1002E000884205D14FF47411CF4A103A916078E0FA
:1002F000CD494831884205D14FF07461CA4A103A5D
:1003000091606EE0C8496031884204D1C749C64A4D
:10031000103AD16065E0C4497831884204D1C449BB
:10032000C14A103AD1605CE0BF499031884204D1A3
:10033000C049BD4A103AD16053E0BB49A831884258
:1003400005D14FF03D51B84A103AD16049E0BA4961
:10035000884204D13D21B84A083A116041E0B649CB
:100360001831884205D14FF47461B34A083A1160DC
:1003700037E0B1493031884205D14FF47411AE4AAB
:10038000083A11602DE0AC494831884205D14FF060
:100390007461A94A083A116023E0A7496031884294
:1003A00004D1A249A44A121F11601AE0A24978316F
:1003B000884204D19E49A04A121F116011E09E4953
:1003C0009031884204D19B499B4A121F116008E07A
:1003D0009949A831884204D14FF03D51964A121FE5
:1003E0001160704710B500220268944B1A40CC6827
:1003F0000B6823434C6923438C692343CC69234313
:100400000C6A23434C6A23438C6A23434C6B23437B
:100410008C6B23431A430260426922F00702D1E940
:100420000B3423431A4342610B6943604B6883607A
:100430008B68C36010BD0021016041608160C160B4
:10044000016141618161C161016241628162C16298
:10045000016341638163704721B1026842F0010288
:10046000026003E0026822F001020260704721B1DD
:10047000026842F40042026003E0026822F4004293
:100480000260704721B1026842F02002026003E07E
:10049000026822F020020260704741607047014606
:1004A000486880B2704722B1036843F400230360B8
:1004B00003E0036823F4002303600161704721B166
:1004C000026842F48022026003E0026822F4802283
:1004D000026070470AB1016100E0C16070470146E7
:1004E00000200A6802F400220AB1012000E0002086
:1004F0007047014600200A6802F001020AB101209B
:1005000000E000207047014600204A6902F03800F0
:10051000704730B503460A4600200024464DAB42E2
:1005200002D24149103901E04349103902F0005527
:100530000DB14C6800E00C68414D2C4004EA020506
:100540000DB1012000E0002030BD02463A4B9A4236
:1005500002D23548103801E03748103801F0005316
:100560001BB1374B0B40C36002E0354B0B4083603F
:10057000704710B501F080034BB122B1436943F0DD
:100580008003436103E0436923F0800343618029D2
:100590000BD02AB1036801F01E042343036004E07A
:1005A000036801F01E04A343036010BD70B502464A
:1005B000002000240025204EB24202D21A4B103BEC
:1005C00001E01D4B103B1F4E0E4036B11E2606EAC1
:1005D000D124166806EA040502E0566906F0800593
:1005E00001F000560EB15C6800E01C68144E344007
:1005F00004EA010616B10DB1012000E0002070BD33
:1006000002460D4B9A4202D20748103801E00A48D0
:10061000103801F000531BB1094B0B40C36002E0DE
:10062000074B0B4083607047106002403D00002084
:10063000400F002000003D20106402403F801CF06D
:100640007D0F7D0F3C0F3C0F10B504468C48844253
:1006500008D10121084600F000FB0021012000F034
:10066000FCFA5EE08748844208D10121022000F0B4
:10067000F4FA0021022000F0F0FA52E082488442AD
:1006800008D10121042000F0E8FA0021042000F044
:10069000E4FA46E07D48844208D10121082000F0B8
:1006A000DCFA0021082000F0D8FA3AE078488442C9
:1006B00008D10121102000F0D0FA0021102000F014
:1006C000CCFA2EE07348844208D10121202000F0AA
:1006D000C4FA0021202000F0C0FA22E06E488442D3
:1006E00008D10121402000F0B8FA0021402000F09C
:1006F000B4FA16E06948844208D10121802000F054
:10070000ACFA0021802000F0A8FA0AE06448844294
:1007100007D10121801500F0A0FA0021A01500F0FA
:100720009CFA10BDF0B50A4600210023002400BF4A
:100730003DE0012505FA01F3156805EA03049C4232
:1007400034D105684F000326BE40B54305601579D6
:100750004E00B5400668354305601579012D02D07D
:100760001579022D16D185684F000326BE40B5438A
:10077000856055794E00B54086683543856045688B
:1007800001268E40B5434560456896798E40B6B2E5
:1007900035434560C5684F000326BE40B543C5607C
:1007A000D5794E00B540C6683543C560491C10294F
:1007B000BFD3F0BD4FF6FF7101600021017141719F
:1007C0008171C171704708B54FF480320092009A70
:1007D0000A430092009AC261C161009AC261C26973
:1007E0000092C269009208BD0246002013690B40C6
:1007F0000BB1012000E0002070470146086980B27B
:1008000070470246002053690B400BB1012000E005
:10081000002070470146486980B2704701837047E5
:10082000418370470AB1018300E041837047416111
:10083000704742694A4042617047F0B50023002486
:100840004D07ED0E02FA05F3CE1000F1200555F824
:1008500026504E07F70E0F26BE40B543CF1000F1CD
:10086000200646F82750CE1000F1200555F82650F6
:1008700045EA0304CE1000F1200545F82640F0BDFE
:10088000000002400004024000080240000C024048
:10089000001002400014024000180240001C0240F8
:1008A00000200240FA48006840F00100F849086062
:1008B0000020F74908310860F5480068F54908400C
:1008C000F3490860F448091D0860081F006820F417
:1008D0008020091F08600020ED490C310860704736
:1008E0000021EB4A921C117011460870704710B538
:1008F00001460022002300204A11012A02D1E44CC3
:10090000236808E0022A03D1E14C7034236802E036
:10091000DF4C7434236801F01F02012494401C4012
:100920000CB1012000E0002010BD38B5002000907F
:100930000024002500BF3120FFF7D9FF05460098AD
:10094000401C00900098B0F5A06F01D0002DF2D0AF
:100950003120FFF7CCFF08B1012400E0002420463D
:1009600038BD01460020CA4A106820F0F80040EA6D
:10097000C10010607047C949086070470021C44A2F
:10098000703211701170012802D004280AD104E0DD
:100990000121BF4A7032117005E00521BC4A703256
:1009A000117000E000BF00BF7047BD49086070478C
:1009B00070B5049C41EA82150126C6EB530645EA50
:1009C0000645054345EA0465B14E361D356070BDE8
:1009D000B24908667047820142EA0172AC4B843327
:1009E0001A607047AD4988667047AC49C864704763
:1009F00002460020A64B0833186820F0EC6042EA5B
:100A000001031843A24B08331860704702460020C8
:100A10009F4B0833186820F0784042EA01031843DE
:100A20009B4B08331860704701460020984A0832F3
:100A3000106820F0030008431060704794480830A5
:100A4000006800F00C00704701460020904A083210
:100A5000106820F0F0000843106070470146002045
:100A60008B4A0832106820F4E05008431060704749
:100A700001460020864A0832106820F4604040EAAF
:100A8000C10010607047F0B500210022002402254B
:100A9000002602237E4F08373F6807F00C0121B182
:100AA000042905D0082937D105E07E4F076036E0DC
:100AB0007D4F076033E0764F3F1D3F68C7F3805698
:100AC000734F3F1D3F6807F03F036EB1764FB7FB92
:100AD000F3F7DFF8BCC10CF1040CDCF800C0CCF378
:100AE000881C07FB0CF40CE06E4FB7FBF3F7DFF844
:100AF000A0C10CF1040CDCF800C0CCF3881C07FB8F
:100B00000CF4634F3F1D3F68C7F301477F1C7D0016
:100B1000B4FBF5F7076002E0624F076000BF00BF5B
:100B20005B4F08373F6807F0F00109095F4F7A5CB7
:100B30000768D7404760564F08373F6807F4E051D1
:100B4000890A5A4F7A5C4768D7408760504F083708
:100B50003F6807F46041490B544F7A5C4768D740BF
:100B6000C760F0BD002100F44072B2F5407F0AD1A9
:100B7000474A0832116821F4F8114D4A02401143E6
:100B8000434A08321160424A70321268C0F30B03C4
:100B90001A433F4B70331A6070474149443908602B
:100BA00070473F49403908607047424908607047C4
:100BB00039B1374A303212680243354B30331A604C
:100BC00006E0334A303212688243314B30331A60C8
:100BD000704739B12E4A3432126802432C4B3433F9
:100BE0001A6006E02A4A343212688243284B3433B2
:100BF0001A60704739B1264A383212680243244BD2
:100C000038331A6006E0224A383212688243204B99
:100C100038331A60704739B11D4A403212680243B6
:100C20001B4B40331A6006E0194A40321268824377
:100C3000174B40331A60704739B1154A4432126875
:100C40000243134B44331A6006E0114A44321268DF
:100C500082430F4B44331A60704739B10C4A10324B
:100C6000126802430A4B10331A6006E0084A103239
:100C700012688243064B10331A607047E1B1044A90
:100C8000143212680243024B14331A6019E0000058
:100C900000380240FFFFF6FE1030002400004742FB
:100CA000800E47420024F40040787D0100000020BF
:100CB000FFFCFF0F5C0147425B4A126882435A4BBC
:100CC0001A60704739B1584A121D12680243564BD8
:100CD0001B1D1A6006E0544A121D12688243524BD3
:100CE0001B1D1A60704739B14F4A0C32126802431B
:100CF0004D4B0C331A6006E04B4A0C3212688243AB
:100D0000494B0C331A60704739B1474A10321268A8
:100D10000243454B10331A6006E0434A1032126812
:100D20008243414B10331A60704739B13E4A3C321E
:100D3000126802433C4B3C331A6006E03A4A3C32AC
:100D400012688243384B3C331A60704739B1364AD7
:100D5000403212680243344B40331A6006E0324A94
:100D6000403212688243304B40331A60704739B1C9
:100D70002D4A4432126802432B4B44331A6006E07A
:100D8000294A443212688243274B44331A60704721
:100D900039B1254A4C3212680243234B4C331A6056
:100DA00006E0214A4C32126882431F4B4C331A60D2
:100DB000704739B11C4A5032126802431A4B503303
:100DC0001A6006E0184A503212688243164B5033BC
:100DD0001A60704739B1144AD21F12780243124B7D
:100DE000DB1F1A7006E0104AD21F127882430E4BA6
:100DF000DB1F1A7070470C486030006840F080704C
:100E0000094960310860704701460020064A083AE7
:100E100012680A400AB1012000E000207047024930
:100E2000891F0870704700001438024010B504464E
:100E3000FE48844208D101210846FFF765FF0021E2
:100E40000120FFF761FF9DE0B4F1804F08D101213F
:100E50000846FFF748FF00210120FFF744FF91E01B
:100E6000F348844208D101210220FFF73CFF002112
:100E70000220FFF738FF85E0EE48844208D10121C7
:100E80000420FFF730FF00210420FFF72CFF79E05A
:100E9000E948844208D101210820FFF724FF0021FE
:100EA0000820FFF720FF6DE0E448844208D10121CB
:100EB0001020FFF718FF00211020FFF714FF61E05A
:100EC000DF48844208D101212020FFF70CFF0021D8
:100ED0002020FFF708FF55E0DA48844208D10121BD
:100EE0000220FFF711FF00210220FFF70DFF49E06C
:100EF000D548844209D101210804FFF705FF0021EC
:100F00004FF48030FFF700FF3CE0D048844209D125
:100F100001214804FFF7F8FE00214FF40030FFF7ED
:100F2000F3FE2FE0CA48844209D101218804FFF76B
:100F3000EBFE00214FF48020FFF7E6FE22E0C548DB
:100F4000844208D101214020FFF7CDFE002140203E
:100F5000FFF7C9FE16E0C048844208D10121802075
:100F6000FFF7C1FE00218020FFF7BDFE0AE0BB486D
:100F7000844207D101218015FFF7B5FE0021A0159D
:100F8000FFF7B1FE10BD00220288A84B98420ED098
:100F9000AC4B98420BD0B0F1804F08D0A44B984294
:100FA00005D0A44B984202D0A34B984204D14FF6EF
:100FB0008F731A404B881A43A04B984207D0A04B1E
:100FC000984204D04FF6FF431A400B891A4302801F
:100FD0004B68C3620B880385944B984202D0994BAF
:100FE000984201D18B7A03860123838270474FF0A8
:100FF000FF31416000210180018141808172704791
:101000000185828270470A46002101884FF68F735E
:10101000194011430180704741627047C1627047B7
:101020000146486A70470146088D704721B1028821
:1010300042F00202028004E002884FF6FD731A407B
:101040000280704721B1028842F00402028004E06D
:1010500002884FF6FB731A400280704721B1028864
:1010600042F08002028004E002884FF67F731A404B
:101070000280704702884FF6F7731A400280028898
:101080000A430280704702884FF6FF431A400280ED
:1010900002880A430280704721B1028842F00102AF
:1010A000028004E002884FF6FE731A400280704707
:1010B00070B5002400220023058C4FF6FE763540E3
:1010C0000584028C8388048B4FF68F752C40B51EE7
:1010D0002C400D882C43751E2A408D892A434D884B
:1010E0002A43524DA84202D0564DA84213D14FF682
:1010F000F7752A40CD892A434FF6FB752A408D8823
:101100002A434FF6FF652B404FF6FF552B400D8AC3
:101110002B434D8A2B43838004838D68456302846F
:1011200070BD70B5002400220023058C4FF6EF76C9
:1011300035400584028C8388048B48F6FF752C406B
:101140004FF6FF452C400D884FF6FF7606EA052541
:101150002C434FF6DF752A408D8906EA05152A4390
:101160004D8806EA05152A43304DA84202D0354D78
:10117000A8421DD14FF67F752A40CD894FF6FF76E4
:1011800006EA05152A434FF6BF752A408D8806EA00
:1011900005152A434FF6FF352B404FF2FF752B40C4
:1011A0000D8A06EA85052B434D8A06EA85052B4301
:1011B000838004838D688563028470BD70B50024CC
:1011C00000220023058C4FF6FF6635400584028C13
:1011D0008388848B4FF68F752C404FF6FC752C401E
:1011E0000D882C434FF6FF552A408D894FF6FF7628
:1011F00006EA05252A434D8806EA05252A430B4DB4
:10120000A84202D00F4DA84238D14FF2FF752A40B4
:10121000CD894FF6FF7606EA05252A434FF6FF35BE
:101220002A408D8806EA05252A4319E0000001407E
:101230000004004000080040000C00400010004086
:1012400000140040000401400040014000440140FF
:101250000048014000180040001C004000200040F1
:101260004EF6FF752B404DF6FF752B400D8A06EAB2
:1012700005152B434D8A06EA05152B43838084838D
:101280008D68C563028470BD70B500220023002400
:10129000058C4EF6FF7635400584038C8488828B5E
:1012A00048F6FF752A404FF6FF452A400D884FF655
:1012B000FF7606EA05252A434DF6FF752B408D89FA
:1012C00006EA05352B434D8806EA05352B43FE4DCE
:1012D000A84202D0FD4DA84208D14BF6FF752C4024
:1012E0000D8A4FF6FF7606EA85152C4384808283AB
:1012F0008D680564038470BD002101804180818078
:1013000081608181C18101824182704770B503464D
:10131000002000241846183001258D40ACB21D8CE9
:10132000A5431D8409B108290AD100EB61000568B5
:101330004FF68F76354005600568154305600FE070
:101340000D1FC5F34E052844056848F6FF76354065
:10135000056005684FF6FF7606EA0226354305600C
:1013600070BD4163704781637047C163704701641A
:1013700070470A460021018B4FF68F7319401143C5
:10138000018370470A460021018B48F6FF7319401C
:101390004FF6FF7303EA02231943018370470A469D
:1013A0000021818B4FF68F73194011438183704761
:1013B0000A460021818B48F6FF7319404FF6FF73F0
:1013C00003EA02231943818370470A460021018BF7
:1013D0004FF6F77319401143018370470A46002105
:1013E000018B4FF2FF7319404FF6FF7303EA02239C
:1013F0001943018370470A460021818B4FF6F7732A
:1014000019401143818370470A460021818B4FF2B6
:10141000FF7319404FF6FF7303EA022319438183D8
:1014200070470A460021018B4FF6FB7319401143A8
:10143000018370470A460021018B4FF6FF331940A4
:101440004FF6FF7303EA02231943018370470A46EC
:101450000021818B4FF6FB73194011438183704744
:101460000A460021818B4FF6FF3319404FF6FF7378
:1014700003EA02231943818370470A460021018B46
:101480004FF67F7319401143018370470A460021CC
:10149000018BC1F30E014FF6FF7303EA02231943D8
:1014A000018370470A460021818B4FF67F731940F4
:1014B0001143818370470A460021818BC1F30E01DD
:1014C0004FF6FF7303EA02231943818370470A46EC
:1014D0000021018C4FF6FD731940114301847047C0
:1014E0000A460021018C4FF6F7731940114301841D
:1014F00070470A460021018C4FF6DF7319404FF602
:10150000FF7303EA02131943018470470A4600215E
:10151000018C4FF67F7319404FF6FF7303EA0213F5
:101520001943018470470A460021018C4FF6FF538E
:1015300019404FF6FF7303EA0223194301847047F1
:101540000A460021018C4FF2FF7319404FF6FF73DA
:1015500003EA02231943018470470A460021018CE3
:101560004DF6FF7319404FF6FF7303EA0233194338
:101570000184704730B5002301248C40A3B2048C51
:101580009C430484048C02FA01F5ADB22C4304841C
:1015900030BD30B5002304248C40A3B2048C9C439E
:1015A0000484048C02FA01F5ADB22C43048430BDEE
:1015B000828B4FF2FF331A408283828B4FF6FF7388
:1015C00003EA01231A4382837047F0B50C4615469F
:1015D000002100220026078C4EF6FF7C07EA0C074C
:1015E0000784818B028C4FF6FF7707EA043640F6BA
:1015F000FF4739404FF6FF7707EA052739434FF693
:10160000FF7707EA0337394345F6FF773A4046F458
:1016100080573A4381830284F0BD828B4FF6F37387
:101620001A408283828B0A4382837047F0B50C464E
:101630001546002100220026078C4FF6FF6C07EAB2
:101640000C070784818B028C4FF6FF7707EA04268C
:101650004FF60C7739404FF6FF7707EA03172F4311
:1016600039434FF2FF573A4046F480773A4381833B
:101670000284F0BD028B4FF2FF331A400283028BCB
:101680004FF6FF7303EA01231A4302837047F0B554
:101690000C461546002100220026078C4FF6EF7CF1
:1016A00007EA0C070784018B028C4FF6FF7707EAE5
:1016B000041640F6FF4739404FF6FF7707EA033735
:1016C00039434FF6FF7703E000000140000401407A
:1016D00007EA052739434FF65F773A4046F010078F
:1016E0003A4301830284F0BD028B4FF6F3731A4034
:1016F0000283028B0A4302837047F0B50C461546FD
:1017000000210022068C4FF6FE773E400684018BB6
:10171000028C4FF60C7631407E1C06EA03162E43EF
:1017200031434FF6F576324044F0010632430183EF
:101730000284F0BD70B505460C46208850B9238957
:10174000A28861882846FFF7D8FFE1882846FFF77E
:10175000CBFF25E0208804280AD12389A28861884C
:101760002846FFF794FFE1882846FFF783FF17E03C
:10177000208808280AD12389A28861882846FFF793
:1017800055FFE1882846FFF748FF09E02389A28832
:1017900061882846FFF719FFE1882846FFF708FF10
:1017A00070BD002101804180012181800021C18024
:1017B000018170472DE9F04105460C4600260127BE
:1017C000608808B9022600E00026A088012801D11F
:1017D000022700E001272088A0B92389A288618818
:1017E0002846FFF78AFFE1882846FFF77DFF238917
:1017F0003A4631462846FFF74AFFE1882846FFF778
:1018000039FF13E02389A28861882846FFF73FFF4C
:10181000E1882846FFF72EFF23893A4631462846BD
:10182000FFF76BFFE1882846FFF75EFFBDE8F08118
:101830000146486B70470146886B70470146C86B8C
:1018400070470146086C70470A884B881A438B889A
:101850001A43CB881A430B891A434B891A438B8945
:101860001A43A0F844207047002101804180818004
:10187000C180018141818181704731B1B0F844203C
:1018800042F40042A0F8442005E0B0F84420C2F33E
:101890000E02A0F84420704721B1828842F0040271
:1018A000828004E082884FF6FB731A408280704782
:1018B00021B1828842F00102828004E082884FF6E2
:1018C000FE731A40828070471AB183890B4383816B
:1018D00002E083898B43838170478182704702468F
:1018E0000020138A0B400BB1012000E0002070475C
:1018F000CA430282704730B502460020002300240C
:10190000158A05EA0103958905EA010413B10CB1B2
:10191000012000E0002030BDCA430282704741EA46
:101920000203A0F8483070471AB183890B438381C2
:1019300002E083898B438381704721B1828842F022
:101940000802828004E082884FF6F7731A40828092
:10195000704701894FF6F8721140018170470A46BD
:10196000002101894FF68F7319401143018170479F
:1019700030B504460D4629462046FFF7F0FF208982
:1019800040F00700208130BD2DE9F04104460D46AE
:1019900016461F46602D06D13B46012231462046A1
:1019A000FFF775FE05E03B46012231462046FFF772
:1019B000A4FE29462046FFF7D2FF208940F0070009
:1019C0002081BDE8F08130B50C4600210189C9B203
:1019D0004FF6FF7505EA0325154325432943018189
:1019E00030BD2DE9F04105460E46174698460024C5
:1019F00043463A4631462846FFF7E5FF2C894FF625
:101A0000F870044044F007044FF68F70044044F02F
:101A100070042C81BDE8F081F0B504460D461646F1
:101A20001F463B46324629462046FFF7CCFF208919
:101A300040F480402081F0BD82884FF68F731A40B9
:101A4000828082880A438280704702894FF6F87349
:101A50001A40028102890A430281704702894FF6C7
:101A60007F731A40028102890A4302817047F0B5F0
:101A70000C4615461E460021002200230189028BD8
:101A8000038C4FF6F877394021434FF6FC473A4034
:101A900040F201173A434FF6DD773B404FF6FF77B0
:101AA00007EA06172F433B43018102830384F0BDFD
:101AB00021B1828842F08002828004E082884FF661
:101AC0007F731A4082807047A0F850107047000062
:101AD00010B50446F748844208D101211020FFF7D1
:101AE00013F900211020FFF70FF93EE0F24884427D
:101AF00009D101214804FFF7F6F800214FF4003026
:101B0000FFF7F1F831E0ED48844209D10121880462
:101B1000FFF7E9F800214FF48020FFF7E4F824E014
:101B2000E748844209D10121C804FFF7DCF800210D
:101B30004FF40020FFF7D7F817E0E248844209D1BC
:101B400001210805FFF7CFF800214FF48010FFF7BF
:101B5000CAF80AE0DC48844207D101212020FFF7BF
:101B6000D3F800212020FFF7CFF810BD2DE9FF4763
:101B700005460E460024A14600BFA046B08900B12C
:101B800000BF2C8A24F44054F08804432C82AC8992
:101B900041F20C608443B08831890843718908435D
:101BA0000443AC81AC8A24F44074B0890443AC8211
:101BB0006846FEF768FFBF48854202D0C2488542AA
:101BC00002D1DDF80C9001E0DDF80890A88900F45E
:101BD000004040B109EBC90000EB09103168490031
:101BE000B0FBF1F707E009EBC90000EB0910316821
:101BF0008900B0FBF1F76420B7FBF0F00401200985
:101C0000642101FB1078A88900F4004040B1322023
:101C100000EBC800B0FBF1F000F00700044308E05F
:101C2000322000EB08106421B0FBF1F000F00F004F
:101C300004432C81BDE8FF874FF416510160002159
:101C40008180C18001810C21418100218181704707
:101C500010B502460020108A20F470600B884C8872
:101C600023438C882343CC8823431843108210BD20
:101C70000021018041808180C180704721B182892B
:101C800042F40052828104E082894DF6FF731A40CB
:101C900082817047028B02F47F420283028B0A43E7
:101CA0000283704721B1828942F40042828103E0BD
:101CB0008289C2F30E028281704721B1828A42F486
:101CC0000062828204E0828A4FF2FF731A408282AD
:101CD0007047C1F308028280704701468888C0F3CC
:101CE00008007047028A4FF6F0731A400282028A97
:101CF0000A430282704721B1828942F00202828146
:101D000004E082894FF6FD731A4082817047828910
:101D10004FF2FF731A40828182890A4382817047A1
:101D2000028A4FF6DF731A400282028A0A43028255
:101D3000704721B1028A42F48042028204E0028AA2
:101D40004BF6FF731A4002827047818941F001010E
:101D50008181704721B1828A42F00802828204E0C8
:101D6000828A4FF6F7731A4082827047028BD2B292
:101D70000283028B42EA01220283704721B1828AE8
:101D800042F02002828204E0828A4FF6DF731A401A
:101D90008282704721B1828A42F01002828204E07E
:101DA000828A4FF6EF731A4082827047828A4FF61A
:101DB000FB731A408282828A0A438282704721B171
:101DC000828A42F00202828204E0828A4FF6FD7328
:101DD0001A40828270471AB1838A0B43838202E0E1
:101DE000838A8B4383827047F0B503460024002624
:101DF0000025002040F66A17B94200D100BF1846FE
:101E0000C1F3421401F01F06012707FA06F5012C61
:101E100001D10C3004E0022C01D1103000E014306C
:101E20001AB107682F43076002E00768AF430760F5
:101E3000F0BD02460020B1F5007F00D100BF13883D
:101E40000B400BB1012000E00020704701F400724C
:101E5000B2F5007F00D100BFCA430280704770B561
:101E60000246002400230025002040F66A16B142F5
:101E700000D100BFC1F3421501F01F03012606FA8D
:101E800003F3012D02D19689334006E0022D02D1E1
:101E9000168A334001E0968A33400C12012606FA76
:101EA00004F41688344013B10CB1012000E0002086
:101EB00070BD000000100140004400400048004098
:101EC000004C0040005000400014014010B50022BA
:101ED000002340F66A14A14200D100BF0A12012477
:101EE0009440A3B2DC43048010BD00000CB5002078
:101EF000019000907648006840F480307449086092
:101F000000BF7348006800F4003000900198401C46
:101F10000190009818B90198B0F5A06FF1D16C4804
:101F2000006800F4003010B10120009001E00020B2
:101F300000900098012846D165484030006840F084
:101F400080506349403108606248006840F4804036
:101F5000604908605E48083000685D4908310860E3
:101F60000846006840F4004008600846006840F4F5
:101F7000A05008605848091F0860081F006840F01A
:101F80008070091F086000BF5148006800F00070B1
:101F90000028F9D040F20560504908604C480830EC
:101FA000006820F003004A490831086008460068CC
:101FB00040F00200086000BF45480830006800F0AB
:101FC0000C000828F8D10CBD10B54548006840F455
:101FD0007000434908603E48006840F001003C49F9
:101FE000086000203A4908310860394800683D49D6
:101FF0000840374908603C48091D0860081F006810
:1020000020F48020091F0860002031490C3108604D
:10201000FFF76CFF4FF0006031498039086010BD58
:1020200070B500200022022300240221284D08352B
:102030002D6805F00C0020B1042806D0082834D102
:1020400007E02A4D2A4E356033E02A4D284E356090
:102050002FE01F4D2D1D2D68C5F380541C4D2D1DE7
:102060002D6805F03F0154B1224DB5FBF1F5184E36
:10207000361D3668C6F3881605FB06F209E01B4DCF
:10208000B5FBF1F5124E361D3668C6F3881605FB12
:1020900006F20F4D2D1D2D68C5F301456D1C6B001B
:1020A000B2FBF3F5124E356003E0104D104E356073
:1020B00000BF00BF064D08352D68C5F303150E4E51
:1020C000705D0B4D2D68C540094E356070BD000038
:1020D00000380240007000401954410E003C02409C
:1020E00088ED00E0FFFFF6FE103000240024F4002D
:1020F0001000002040787D011400002000B597B04A
:102100000121B148FEF754FD01211020FEF794FD96
:1021100001212020FEF790FD08220B21AB48FEF79D
:102120008CFB07220A21A948FEF787FB4FF4406089
:10213000119002208DF8480000208DF84A000320FD
:102140008DF8490000208DF84B0011A99F48FEF73B
:10215000E9FA9F48FFF7BCFC9E48FFF7B9FC4FF433
:10216000FA2013900020ADF85000ADF85200ADF801
:1021700054000420ADF856000020ADF8580013A913
:102180009348FFF7F3FC4FF4FA2013900020ADF8CA
:102190005000ADF85200ADF854000820ADF85600DC
:1021A0000020ADF8580013A98A48FFF7DFFC012191
:1021B0008748FFF763FD01218648FFF75FFD012295
:1021C00080218448FFF707FE012240218048FFF765
:1021D00002FE45208DF8400002208DF841000120CC
:1021E0008DF842008DF8430010A8FDF7DCFF7A4817
:1021F000FEF756F84FF0206001907648001D0290DF
:102200007648039040200490092005900020069015
:102210004FF4806007900020089009900A904FF4D6
:1022200040300B9000200C900D900E900F9001A963
:102230006948FEF7D7F8012210216748FEF799F99F
:1022400000216548FEF708F9012240F22441604868
:10225000FFF7CAFD25208DF8400001208DF84100D0
:102260008DF842008DF8430010A8FDF79CFF5A48F6
:102270006038FEF715F84FF0006001905448001DDB
:102280000290574803900020049080200590002081
:1022900006904FF4806007900020089009904FF45A
:1022A00080700A904FF440300B9000200C900D90FD
:1022B0000E900F9001A948486038FEF793F801216D
:1022C00045486038FEF7C8F817B000BD10B545495D
:1022D0004148FEF76BF958B100213F48FEF7BCF8C2
:1022E00041493D48FEF731F93E493B48FEF788F940
:1022F00010BD1CB538486038FEF7D1F8C0F1800039
:1023000080B2009032480088C0B201903048808886
:10231000C0B20190002130486038FEF79DF8334983
:102320002D486038FEF711F980212B486038FEF700
:10233000B4F840F224412648FFF7C8FD00F00CFE37
:10234000012125486038FEF787F81CBD10B5002133
:102350002148FEF781F826480088000A1F490870C6
:1023600023480078487022484088000A8870204836
:102370008078C8701E488088000A08711C4800795F
:1023800048711B48C088000A887119488079C87153
:102390001748007A08720846007A1549897A890632
:1023A00040EA11600D49087209210B48FEF775F8E3
:1023B00001210948FEF750F80E48006880F04000FF
:1023C0000C49086010BD0000010040000000024000
:1023D0000010014000140140A0640240F4040020F9
:1023E000FD040020008020200000202000003D107F
:1023F00090040020140402407047704710B52DED82
:10240000028B002001F07EF9B0EE408ABDEC028B19
:1024100010BD10B500F0D9FD10BD10B52DED028B2B
:10242000022001F06FF9B0EE408ADFED330AB0EE22
:10243000480A00F0E7F8BDEC028B10BD704710B5FC
:102440002DED028B042001F05DF9B0EE408A2B489F
:102450000078401CC0B2294908700A2801DD00201C
:102460000870BDEC028B10BD704710B52448008881
:10247000012804DBFFF7C0FF002021490880204825
:102480004088022804DBFFF7B9FF00201C49488080
:102490001B488088052804DBFFF7BBFF0020184994
:1024A00088801748C0880A2804DBFFF7B6FF0020A1
:1024B0001349C88012480089142804DBFFF7BEFFC7
:1024C00000200F4908810E484089322804DBFFF7BD
:1024D000B6FF00200A4948810A48D0E900304FF48D
:1024E0007A729A1A70F1000005DBFFF7BDFF002138
:1024F000044A1160516010BD0000484330000020C4
:1025000006050020280000207FB56846FEF7BBFACC
:102510004FF47A710198B0FBF1F4E4082146481EAB
:10252000B0F1807F00D31BE0481E4FF0E0225061E5
:1025300050170F22002807DA13071E0E2D4B00F04C
:102540000F052D1F5E5503E013071D0E2A4B1D546A
:1025500000BF00204FF0E02290610720106100BF13
:102560006FF00400FDF76CFE7FBD244A11684FF048
:10257000E02252694FF0E0239B69D21A4FF47A733C
:102580005A434FF0E0235B69B2FBF3F201EB4103E6
:10259000C3EBC11302EBC300704730B50446FFF72D
:1025A000E4FF054600BFFFF7E0FF401BA042FAD35F
:1025B00030BD10B5044603E04FF47A70FFF7EDFF2D
:1025C000201EA4F10104F7D110BD10B500F0ACF944
:1025D0004FF48060FDF7E2FDFFF796FFFFF78EFDF9
:1025E0004FF4C87000F02CFC00F04BF801200449B7
:1025F000C87010BD18ED00E000E400E034000020D9
:102600007C040020B2EE0E1AF4EEC10AF1EE10FACC
:1026100000D270479FEDB81AC0EE811AB748018EFC
:10262000008E401CB54A10864EF66020814206DAC4
:102630001046008E1146098E491C118601E04EF6A7
:10264000602001EE100AB8EEC11A21EE001AF4EE75
:10265000C11AF1EE10FA03D20120A84981F8320024
:10266000A64890F83200012809D14FF47A60A449B5
:102670000860091D0860091D0860091D086000BF89
:10268000C7E700B597B001219E48FEF791FA0121F6
:102690004804FEF7C0FA072203219B48FEF7CDF855
:1026A0000820119002208DF8480000208DF84A0083
:1026B00003208DF8490000208DF84B0011A99248A5
:1026C000FEF730F89148FFF703FA91481390002085
:1026D000ADF85000ADF852004FF48060ADF85400F2
:1026E0000420ADF856000020ADF8580013A9874823
:1026F000FFF73CFA01218548FFF7C0FA012240218B
:102700008248FFF768FB10208DF8400001208DF80B
:1027100041008DF842008DF8430010A8FDF743FDFD
:102720007C48FDF7BDFD4FF0006001907748001D2B
:102730000290794803900020049012200590002018
:1027400006904FF4806007900020089009904FF4A5
:1027500080700A904FF440300B9000200C900D9048
:102760000E900F9001A96B48FDF73CFE012210214D
:102770006848FDF7FEFE01216648FDF76DFE17B0C3
:1027800000BD10B55D4800885C49888108464188D5
:10279000C18181880182C18841825F4800785E4999
:1027A000497840EA0120C0F30A005C4908800846E5
:1027B000B0F90000A0F5806000EE900AF8EEE00AA3
:1027C000B0EE600AF1EE040A00F0F8FABDEEC00ABD
:1027D00010EE100A00B2494908804F484078C010F6
:1027E0004D49897840EA4110C0F30A004B494880BE
:1027F0000846B0F90200A0F5806000EE900AF8EEFD
:10280000E00AB0EE600AF1EE040A00F0D7FABDEE7D
:10281000C00A10EE100A00B23849C8803E488078DD
:1028200080113D49C97840EA81003B49097940EA75
:102830008120C0F30A00394988800846B0F90400B5
:10284000A0F5806000EE900AF8EEE00AB0EE600AB3
:10285000F1EE040A00F0B2FABDEEC00A10EE100A62
:1028600000B2264988802C48007940102A494979CD
:1028700040EAC110C0F30A002849C8800846B0F9F0
:102880000600A0F5806000EE900AF8EEE00AB0EED7
:10289000600AF1EE040A00F091FABDEEC00A10EEF3
:1028A000100A00B2154948801B4840790011800881
:1028B000088119484079C0F30110488108464089D1
:1028C000022801D0FFF742FD00200C49088681F85C
:1028D000320010BD10B512490E48FDF767FE48B131
:1028E00010490C48FDF731FE0D490A48FDF788FEF6
:1028F000FFF747FF10BD000000007A44900400205D
:102900003404004001002000000002400044004068
:10291000A0860100886002406C0600208606002028
:1029200000880020000800201CB501210220FEF7CD
:102930003FF94FF47070009001208DF804000020E2
:102940008DF8060003208DF8050069460148FDF763
:10295000E9FE1CBD00040240B0EE401AF0EE601A21
:10296000B5EEC01AF1EE10FA07D1F5EEC01AF1EE8D
:1029700010FA02D19FEDF90AA5E0B5EEC01AF1EE0A
:1029800010FA02DDB0EE414A01E0B1EE414AB0EE8C
:10299000443AF5EEC01AF1EE10FA02DDB0EE614AEB
:1029A00001E0B1EE614AF0EE442AB4EEE23AF1EE13
:1029B00010FA02D283EE222A01E082EE832A9FEDF2
:1029C000E84AB4EEC42AF1EE10FA02D2F0EE420A5E
:1029D0002DE0DFEDE44AB6EE004A12EE244AF0EEB6
:1029E000443ABDEEE34A14EE100A04EE100AB8EEC3
:1029F000C44A33EEC44AF0EE443ADB4901EB8001AD
:102A000091ED004AF0EE440AD74A411C02EB8101E5
:102A100091ED004A114601EB8001D1ED004A74EEC0
:102A2000644AB0EE604A04EEA34AF0EE440AF4EEC3
:102A3000C32AF1EE10FA20DDF5EEC01AF1EE10FA1D
:102A40000ADBB5EEC01AF1EE10FA02DBB0EE600A56
:102A500039E0B1EE600A36E09FEDC40AB5EEC01A67
:102A6000F1EE10FA04DB30EE604AB0EE440A2AE0E0
:102A700030EEC04AB0EE440A25E0B5EEC01AF1EEE1
:102A800010FA10DB9FEDBA0AF5EEC01AF1EE10FA5B
:102A900004DB30EE604AB0EE440A14E030EE204A27
:102AA000B0EE440A0FE09FEDB30AF5EEC01AF1EE66
:102AB00010FA04DB30EE204AB0EE440A03E030EEB8
:102AC000604AB0EE440A704700B5B0EE405AF0EEEE
:102AD000605AF0EE450AB0EE650AFFF73DFF00BD13
:102AE000F0EE400A20EEA00A7047B0EE401AB7EEB2
:102AF000080AB0EE402AB6EE000A21EE000AF0EE17
:102B0000401AF0EE410A10EE900A9B49A1EB6000DA
:102B100000EE900A61EEA02AB7EE080A02EEE00A83
:102B200020EE200AF0EE400A61EEA02AB7EE080A75
:102B300002EEE00A20EE200AF0EE400A21EE200A22
:102B4000704710B52DED0A8BB0EE409AF0EE609A0A
:102B50009FED8A0B53EC102B51EC190B01F08CF903
:102B600018D29FED880B53EC102B51EC190B01F090
:102B70005EF841EC1B0B9FED850B53EC102B00F026
:102B8000AFFF41EC1A0B53EC192B01F050F841EC5C
:102B9000180B17E09FED7B0B53EC102B51EC190B2E
:102BA00001F045F841EC1B0B9FED780B53EC102B1B
:102BB00001F03AF841EC1A0B53EC192B01F037F8FD
:102BC00041EC180B9FED6D0B53EC102B51EC180BD7
:102BD00001F052F920D29FED6F0B53EC102B51EC0A
:102BE000180B00F07DFF41EC1C0B9FED6C0B53ECC0
:102BF000102B01F01CF841EC1B0B9FED660B53EC06
:102C0000102B00F06DFF41EC1A0B53EC182B01F068
:102C10000EF841EC180B1FE09FED5E0B53EC102BF0
:102C200051EC180B00F0FDFF41EC1C0B9FED5D0B10
:102C300053EC102B00F0FBFF41EC1B0B9FED550BF1
:102C400053EC102B00F04CFF41EC1A0B53EC182BFB
:102C500000F0EDFF41EC180BB0EE480AF0EE680A08
:102C6000BDEC0A8B10BD10B52DED068BB0EE408A81
:102C7000F0EE608A01249FED4D0B53EC102B51ECCC
:102C8000180B01F011F90AD89FED480B53EC102BEB
:102C900051EC180B00F0C5FF41EC180BA41E2046A8
:102CA00001F0A6F841EC190BB0EE480AF0EE680A04
:102CB000FFF747FFB0EE40AAF0EE60AA53EC192BE5
:102CC00051EC1A0B00F0B3FF41EC100BBDEC068B7E
:102CD00010BD10B52DED088BB0EE408AF0EE608A85
:102CE00001249FED340B53EC102B51EC180B00F02A
:102CF000F7FE41EC180B9FED2D0B53EC102B51EC14
:102D0000180B01F0D1F80AD8A41E9FED280B53EC44
:102D1000102B51EC180B00F084FF41EC180B2046EF
:102D200001F066F841EC1A0BB0EE480AF0EE680AC2
:102D3000FFF799FFB0EE40BAF0EE60BA53EC1A2BF1
:102D400051EC1B0B00F073FF41EC190B01F0C4F8C0
:102D500000EE100ABDEC088B10BD00000000000062
:102D60008180803B0000804378000020DB0F4940D9
:102D7000DB0FC93FDB0FC9BFDF59375F0000000021
:102D800000000000000000602FF0D93F000000604C
:102D9000305FF43F000000000000F03F000000C082
:102DA000CCCCCCBF000000C0CCCCCC3FF1D4C853BD
:102DB000FB210940F1D4C853FB21F93FB0EE401A82
:102DC000B5EEC01AF1EE10FA0BDD31EE600AB5EE89
:102DD000C00AF1EE10FA0FD25FED201AB0EE610AD0
:102DE0000AE031EE200AB5EEC00AF1EE10FA03DD7A
:102DF0005FED261AB0EE610A7047F0EE400A9FEDD3
:102E00000D0AF4EEC00AF1EE10FA04DD9FED0A0A95
:102E100030EEC00A70479FED090AF4EEC00AF1EEE9
:102E200010FA04D29FED040A30EE800AF2E7B0EE09
:102E3000600AEFE7000034430000B443000034C3ED
:102E400010B58AB0044601210220FDF7E4FE0121FD
:102E50000846FDF7ADFE01210220FDF7A9FE022282
:102E60000621FE48FDF7E9FC02220721FB48FDF799
:102E7000E4FC02220021FA48FDF7DFFC02220121D6
:102E8000F748FDF7DAFCC020089002208DF82400F6
:102E900003208DF8250000208DF8260001208DF8F4
:102EA000270008A9ED48FDF73DFC0320089002200B
:102EB0008DF8240003208DF8250000208DF82600D1
:102EC00001208DF8270008A9E548FDF72BFC092013
:102ED000ADF814000020ADF8160042F21070069014
:102EE0000020ADF81C008DF81E0005A9DD48FEF796
:102EF0004AF86020ADF800000020ADF80C00012079
:102F0000ADF802006946D748FEF7D2F86946D548C1
:102F1000FEF707F96946D348FEF750F96946D148EC
:102F2000FEF7B2F90821CF48FEF74FFA0821CD4845
:102F3000FEF754FA0821CB48FEF75DFA0821C9488C
:102F4000FEF762FA0121C748FEF788F80121C5485B
:102F5000FEF7A2F80AB010BDC348408902280BD181
:102F60004FF47A60BF4934310860091D0860091DBB
:102F70000860091D086027E0BC484078BB49097813
:102F800040EA012000B2B74934310860B748C07840
:102F9000B649897840EA012000B2B2493831086068
:102FA000B2484079B149097940EA012000B2AD49FF
:102FB0003C310860AD48C079AC49897940EA0120CC
:102FC00000B2A849403108607047A74840890228EC
:102FD0000BD14FF47A60A34934310860091D0860B1
:102FE000091D0860091D08602CE09F48B0F9060023
:102FF00000EE100AB8EEC00A9FED9D1AC0EE010A5D
:103000009FED9C1A9FED9B0A00EE810ABDEEC00A5F
:1030100010EE100A00B2984908800846B0F9000086
:103020009049343108609448B0F90000091D0860E7
:103030009148B0F90000091D08608F48B0F9000000
:10304000091D0860704710B52DED108B8648B0F94A
:1030500006008A49884211DC89480068B0F5FA7F89
:1030600006DD01208749487000208549086008E096
:1030700083480068401C8249086002E000208149C2
:1030800048708048407830BB7E488078012822D143
:103090007C48007818B100207A4908701BE00120B4
:1030A000784908709FED780A784880ED270AB7EED6
:1030B000000A774880ED000A9FED730A754880ED9D
:1030C000000A9FED710A744880ED000A9FED6E0AB8
:1030D000724880ED000A6B4840786A49887008465B
:1030E000C07800287ED00846007800287BD06C4845
:1030F00090ED010ADFED6B0A80EE201A11EE104A06
:10310000204600F0A5FE41EC1B0BB0EE4B0AF0EEA2
:103110006B0A01F025F8B0EE409AF0EE609A604834
:1031200090ED000ADFED5F0A80EE201A11EE104AE2
:10313000204600F08DFE41EC1D0BB0EE4D0AF0EE86
:103140006D0A01F00DF8B0EE40BAF0EE60BA5648E4
:1031500090ED000A10EE101A084600F079FE41ECDE
:103160001C0B53EC1B2B00F0D4FD41EC1A0B53EC61
:10317000192B00F0CEFD41EC180B00F0ADFE4A49D2
:10318000C860474890ED010ADFED460A80EE201A3C
:1031900011EE104A204600F05BFE41EC1D0BB0EE34
:1031A0004D0AF0EE6D0A00F0DBFFB0EE40BAF0EE33
:1031B00060BA3B4890ED000ADFED3A0A80EE201A33
:1031C00011EE104A204600F043FE41EC1F0BB0EE1A
:1031D0004F0AF0EE6F0A00F0C3FFB0EE40DAF0EEF7
:1031E00060DA01E089E224E2304890ED090AD0ED8E
:1031F000160A30EE200A10EE101A084600F028FEDB
:1032000041EC1E0B53EC1D2B00F083FD41EC1C0B1D
:1032100053EC1B2B00F07DFD41EC190B224890ED87
:10322000030A1A48D0ED210A30EE600AD0ED220AD6
:1032300030EE600AD0ED230A30EE600A10EE101A6C
:10324000084600F005FE41EC1A0B53EC192B00F078
:1032500047FC41EC180B00F03FFE29E00000024063
:10326000000402400004004090040020FD040020FF
:103270000000254400007A458404002076FDFFFF0D
:10328000800400207C0400200000000014050020C1
:10329000380000203C0000204000002044000020B6
:1032A00040070020A34C65423C060020A4060020F5
:1032B000FE490860FE4890ED010A5FED060A80EEC7
:1032C000201A11EE104A204600F0C2FD41EC1D0B01
:1032D000B0EE4D0AF0EE6D0A00F042FFB0EE40BADB
:1032E000F0EE60BAF24890ED000A5FED120A80EE4F
:1032F000201A11EE104A204600F0AAFD41EC1F0BE7
:10330000B0EE4F0AF0EE6F0A00F02AFFB0EE40DA9E
:10331000F0EE60DAE74890ED090AD0ED160A30EEDB
:10332000200A10EE101A084600F092FD41EC1E0B28
:1033300053EC1D2B00F0EDFC41EC1C0B53EC1B2B54
:1033400000F0E7FC41EC190BDB4890ED030ADB4889
:10335000D0ED210A30EE200AD0ED220A30EE600ACC
:10336000D0ED230A30EE200A10EE101A084600F0C5
:103370006FFD41EC1A0B53EC192B00F0B1FB41EC43
:10338000180B00F0A9FDC9494860C94890ED010A31
:103390005FED3C0A80EE201A11EE104A204600F044
:1033A00057FD41EC1D0BB0EE4D0AF0EE6D0A00F03A
:1033B000D7FEB0EE40BAF0EE60BABD4890ED000A1C
:1033C0005FED480A80EE201A11EE104A204600F008
:1033D0003FFD41EC1F0BB0EE4F0AF0EE6F0A00F01C
:1033E000BFFEB0EE40DAF0EE60DAB24890ED090AC6
:1033F000D0ED160A30EE200A10EE101A084600F042
:1034000027FD41EC1E0B53EC1D2B00F082FC41EC20
:103410001C0B53EC1B2B00F07CFC41EC190BA64859
:1034200090ED030AA548D0ED210A30EE200AD0ED38
:10343000220A30EE200AD0ED230A30EE600A10EEA8
:10344000101A084600F004FD41EC1A0B53EC192B3E
:1034500000F046FB41EC180B00F03EFD93498860FC
:10346000934890ED010A5FED710A80EE201A11EE8B
:10347000104A204600F0ECFC41EC1D0BB0EE4D0A6A
:10348000F0EE6D0A00F06CFEB0EE40BAF0EE60BAFD
:10349000874890ED000A5FED7D0A80EE201A11EE5C
:1034A000104A204600F0D4FC41EC1F0BB0EE4F0A4E
:1034B000F0EE6F0A00F054FEB0EE40DAF0EE60DAA3
:1034C0007C4890ED090AD0ED160A30EE200A10EE85
:1034D000101A084600F0BCFC41EC1E0B53EC1D2BEF
:1034E00000F017FC41EC1C0B53EC1B2B00F011FC03
:1034F00041EC190B704890ED030A7048D0ED210A99
:1035000030EE600AD0ED220A30EE200AD0ED230A18
:1035100030EE200A10EE101A084600F099FC41EC3B
:103520001A0B53EC192B00F0DBFA41EC180B00F0EE
:10353000D3FC5E49C860084690ED000ADFED600AE2
:10354000B4EEE00AF1EE10FA02D29FED5D0A0FE050
:10355000564890ED000ADFED5B0AB4EEE00AF1EEAA
:1035600010FA02DD9FED570A02E0504890ED000A84
:103570004E4880ED000A90ED010ADFED510AB4EEED
:10358000E00AF1EE10FA02D29FED4D0A0FE0474833
:1035900090ED010ADFED4B0AB4EEE00AF1EE10FA0D
:1035A00002DD9FED480A02E0404890ED010A3F48E5
:1035B00080ED010A90ED020ADFED410AB4EEE00A67
:1035C000F1EE10FA02D29FED3E0A0FE0374890ED7F
:1035D000020ADFED3C0AB4EEE00AF1EE10FA02DD79
:1035E0009FED380A02E0314890ED020A2F4880ED45
:1035F000020A90ED030ADFED320AB4EEE00AF1EEC2
:1036000010FA02D29FED2E0A0FE0284890ED030A2F
:10361000DFED2C0AB4EEE00AF1EE10FA02DD9FEDC8
:10362000290A02E0214890ED030A204880ED030AB0
:1036300010E01FEDEB0A1D4880ED000A1FEDEE0AB9
:1036400080ED010A1FEDF00A80ED020A1FEDF20A7B
:1036500080ED030A1548D0ED000A1FEDFA0AB1EE1D
:10366000001A01EE200ABDEEC00A10EE100A00B2E8
:10367000154908600D48D0ED010A9FED140AB1EE1E
:10368000001A01EE200ABDEEC00A10EE100A00B2C8
:10369000091D08600548D0ED020A9FED0C0AB1EE45
:1036A000001A01EE200ABDEEC00A11E04C0700200E
:1036B00040070020A40600203C060020140500203E
:1036C0000000A042008089443404004000007A4594
:1036D00010EE100A00B2091D08600948D0ED030A77
:1036E0001FED060AB1EE001A01EE200ABDEEC00A77
:1036F00010EE100A00B2091D0860BDEC108B10BD61
:103700004C07002010B5044604EB4400204901EBAF
:10371000800090ED000A04EB440001EB800080ED96
:10372000010AFEF722FF00EE100AB8EE400ADFEDB4
:10373000190A80EE201A04EB4400154901EB8000C1
:1037400080ED001A04EB440001EB800090ED000ACC
:1037500004EB440001EB8000D0ED010A30EE600A7A
:1037600004EB440001EB800080ED020A04EB44000E
:1037700001EB800090ED020A10BD10B5002404E0BA
:103780002046FFF7BFFF601CC4B20A2CF8DB10BD57
:103790005C0700200024744910B5044600BF402196
:1037A000A048FEF746FB0028F9D021469D48FEF7C9
:1037B00090FA10BD00B597B001219B48FDF7F8F9CC
:1037C00001210805FDF727FA08220C219748FDF78B
:1037D00034F8082202219648FDF72FF84FF4805064
:1037E000119002208DF8480000208DF84A00032037
:1037F0008DF8490000208DF84B0011A98B48FCF78B
:1038000091FF0420119002208DF8480000208DF8CF
:103810004A0003208DF8490000208DF84B0011A9C3
:103820008348FCF77FFF7F48FEF752F94FF41650AC
:1038300013900020ADF85000ADF85200ADF85400E0
:103840000C20ADF856000020ADF8580013A97548BB
:10385000FEF78CF901217348FEF710FA6420FEF799
:10386000A8FEB520FFF798FF6220FFF795FF06201E
:10387000FFF792FF0020FFF78FFF1420FFF78CFF68
:103880000020FFF789FF0120FFF786FF0020FFF7E8
:1038900083FF0020FFF780FF0020FFF77DFFD0208F
:1038A000FFF77AFF0820FFF777FF0020FFF774FF8C
:1038B0000020FFF771FF0020FFF76EFFC220FFF727
:1038C0006BFF0120FFF768FF0020FFF765FF07206F
:1038D000FFF762FF0020FFF75FFF0320FFF75CFFA9
:1038E0000020FFF759FF0020FFF756FF0020FFF7E9
:1038F00053FF0020FFF750FF0020FFF74DFFC020CF
:10390000FFF74AFF7E20FFF747FF6420FEF751FED6
:1039100000214448FEF7B2F94248FEF7D9F84FF4C7
:10392000E13013900020ADF85000ADF85200ADF832
:1039300054000C20ADF856000020ADF8580013A933
:103940003848FEF713F901213648FEF797F964204D
:10395000FEF72FFEB520FFF71FFF6220FFF71CFFC9
:103960000620FFF719FF0820FFF716FF0620FFF7D4
:1039700013FF0020FFF710FF6420FFF70DFF00206A
:10398000FFF70AFF0120FFF707FF0020FFF704FF02
:103990000120FFF701FF0020FFF7FEFE7A20FFF76E
:1039A000FBFE1220FFF7F8FE6420FEF702FE012264
:1039B00040F224411B48FEF717FA01224021194822
:1039C000FEF709FA35208DF8400003208DF84100FC
:1039D00001208DF842008DF8430010A8FCF7E3FBAE
:1039E0001448FCF75DFC01A91248FCF7FBFC01211F
:1039F0001048FCF731FD17B000BD10B540F224416E
:103A00000848FEF72CFA58B100210A48FCF724FDBB
:103A10000620FFF777FE084880ED000A0148048879
:103A200010BD0000005000400C00200000080240C3
:103A3000000C02401060024088040020FEF7C5FD23
:103A40004020054908808020088040000880400010
:103A5000088000BFFEE7000018040240704700BF66
:103A6000FEE700BFFEE700BFFEE700BFFEE77047CE
:103A70007047704710B516480068401C144908602C
:103A800014480088401C1349088008464088401CA0
:103A9000488008468088401C88800846C088401CB2
:103AA000C88008460089401C088108464089401C9F
:103AB00048810948D0E90020521C40F10000064925
:103AC000C1E900200548C07808B1FEF7CEFC10BD62
:103AD0003400002006050020280000207C0400207F
:103AE0002DE9FE4F804681EA0300C00F0C4600908E
:103AF00021F0004123F00045B8EB0200A94105D2B6
:103B00004046214690461C460B46024623F00040A4
:103B1000104347D0270DC7F30A00C3F30A510290A0
:103B2000401A019040286BDAC3F3130040F4801B65
:103B30000098924620B10023D2EB030A63EB0B0BF3
:103B400001985946C0F14002504600F0E1F906469E
:103B50000D4650465946019A00F0F9F910EB08005D
:103B60006141002487EA115284EAE7731A4340D086
:103B7000009A62B3019A012A4FEA075215DC001B32
:103B800061EB02014FF0004202EA0752CDE9004228
:103B9000001C41F5801132462B4600F030FA03B08C
:103BA000BDE8F08F40462146F9E7001B61EB0201BA
:103BB000001C41F5801300185B412018A2F5001786
:103BC00047EB030140EAD570B6196D4111E06D086D
:103BD0004FEA360645EAC0754FEA0752001B61EB13
:103BE0000201001C41F5801149084FEA300000191C
:103BF000514132462B4603B0BDE8F04F00F0F0B91A
:103C00000098012240000023D0EB020263EBE07336
:103C1000009821464FEAE074B8EB000061EB040124
:103C2000E9E783F000435BE781F0004158E72DE9C5
:103C3000FE4F81EA030404F0004421F000410094A7
:103C40004FF0000B23F0004350EA01045ED052EA2B
:103C500003045BD0C3F30A54C1F30A552C44A4F205
:103C6000F3340194A0FB0254C1F3130141F4801119
:103C7000C3F3130343F4801301FB024400FB034E20
:103C8000840A970A44EA815447EA8357A4FB0768E9
:103C900002958D0A05FB07854FEA932C04FB0C5413
:103CA0002705029D4FEA065847EA1637B5EB080587
:103CB0006EEB070C870E920E47EA811742EA8312D9
:103CC000A7FB0201B6EB0B0164EB00042B0D43EAEA
:103CD0000C335E1844EB1C50DA465146E7FB0201F8
:103CE000C5F313044FEA0B3343EA14534FEA04328B
:103CF000019C43EA0603A4F10C040294009CCDE964
:103D000000B400F07CF903B0BDE8F08F002001465C
:103D1000F9E72DE9F04D81EA030404F0004B21F0AE
:103D2000004514464FF0000A23F0004150EA050216
:103D300020D054EA01021DD0C5F30A570246C5F34C
:103D40001303C1F31300C1F30A5640F4801543F482
:103D50008013A7EB0608101BD64608F2FD3873EB5C
:103D6000050002D308F1010801E092185B41B8F1A7
:103D7000000F03DA00200146BDE8F08D00204FF46B
:103D80008011064684460EE0171B73EB050705D32A
:103D9000121B63EB050306434CEA010C49084FEA8A
:103DA000300092185B4150EA0107EDD152EA03005E
:103DB00012D082EA040083EA0501084305D0101BF3
:103DC000AB4106D20122002306E000224FF000435F
:103DD00002E06FF0010253101AEB06004CEB0851A1
:103DE00010EB0A0041EB0B01BDE8F04D00F0F8B814
:103DF0000EB5C10F80EAE0700844CA07002140F206
:103E000033438DE80E000A460B4600F0F8F803B085
:103E100000BD70B5C1F30A5201F000450024C1F3A2
:103E2000130140F2FF3341F480119A4201DA00207D
:103E300070BD40F233439A42A2F2334203DC524255
:103E400000F075F800E090402C43F1D0404270BD86
:103E500000F0004230F000400AD0C10D01F5607161
:103E6000C0F3160042EA0151C208400711437047EF
:103E7000002001467047000030B5041E71F10004B7
:103E800004DB4FF00044404264EB0101141E73F167
:103E9000000405DB1C464FF00043524263EB040371
:103EA0008B4208BF824230BD30B5041E71F1000460
:103EB00004DB4FF00044404264EB0101141E73F137
:103EC000000405DB1C464FF00043524263EB040341
:103ED000994208BF904230BD01F0004330B421F058
:103EE000004150EA010206D00A0DA2F56072C1F34A
:103EF0001301002A02DC30BC00207047440F44EA62
:103F0000C104C100E01830BC00EBC25000F031B871
:103F1000202A04DB203A00FA02F100207047914089
:103F2000C2F1200320FA03F3194390407047202A7E
:103F300004DB203A21FA02F00021704721FA02F353
:103F4000D040C2F120029140084319467047202A10
:103F500006DBCB17203A41FA02F043EAE07306E0B1
:103F600041FA02F3D040C2F12002914008431946C1
:103F700070470029A8BF7047401C490008BF20F0C7
:103F80000100704710B4B0FA80FC00FA0CF050EA5F
:103F9000010404BF10BC704749B1CCF1200421FAE0
:103FA00004F411FA0CF118BF012121430843A3EBDB
:103FB0000C01CB1D4FEA00614FEA102042BF0020E8
:103FC00010BC704700EBC35010440029A4BF10BCC4
:103FD0007047401C490008BF20F0010010BC70472A
:103FE00010B5141E73F1000408DA401C41F1000101
:103FF00092185B411A4301D120F0010010BD2DE958
:10400000F04D92469B4611B1B1FA81F202E0B0FA4E
:1040100080F220329046FFF77BFF04460F4640EACD
:104020000A0041EA0B0153465A46084313D0114691
:1040300053EA010019D0C8F140025046FFF777FF5C
:1040400005460E46504659464246FFF761FF084373
:1040500005D0012004E020463946BDE8F08D00205F
:10406000054346EAE0762C4337430A986305E40AA1
:10407000A0EB08000022FD0A44EA47540A3002D5AA
:1040800000200146E9E7010510196941DDE908450D
:1040900000196941BDE8F04DA2E70000064C074D4C
:1040A00006E0E06840F0010394E807009847103408
:1040B000AC42F6D3FCF76CF8B84B0008D84B0008BC
:1040C0000EB540F2334102910021CDE900110A46BC
:1040D0000B46FFF794FF03B000BD70B58C1810F8C5
:1040E000015B15F0070301D110F8013B2A1106D13D
:1040F00010F8012B03E010F8016B01F8016B5B1E57
:10410000F9D12B0705D40023521E0DD401F8013B31
:10411000FAE710F8013BCB1A921C03E013F8015B9D
:1041200001F8015B521EF9D5A142D8D3002070BD21
:1041300003B401984100009850EAC12018BF042040
:104140004A0D18BF40F0010040F2FF72B2EB515F20
:1041500008BF40F00200012808BF052002B07047E8
:1041600010B52F499FED2C1B2DED020B84B0059847
:1041700020F000408842D8BF9DED040B2DDD294979
:10418000884209D1049840B94FF0010000F070FC5A
:1041900000F03EFC06B010BD05DB9DED040B00F009
:1041A0002BFC06B010BD68469DED040B00F03CF8FA
:1041B00010F0030004BF9DED021B9DED000B0CD021
:1041C00001280ED09DED021B9DED000B022817D09B
:1041D000012000F079FB06B010BD00F041FA06B0F6
:1041E00010BD9DED021B9DED000B012000F06CFB4E
:1041F00051EC100B81F0004106B041EC100B10BDEA
:1042000000F02EFA51EC100B81F0004106B041ECA9
:10421000100B10BD000000000000000000000000B6
:10422000FB21E93F0000F07F2DE9F14F04462DED21
:10423000020B2DED088B8AB09FEDE70B80ED020B92
:10424000139EE74826F0004585420ADC9DED120BDF
:10425000002084ED000B0AB0BDEC088B03B0BDE874
:10426000F08FE0489FEDE0AB9FEDE1BBA84247DD5A
:10427000E14F9FEDE39B9FEDE48B9DED120B53EC23
:104280001A2B51EC100B002E1CDDFFF7CAFC41EC81
:10429000100BBD4208D053EC1B2B51EC100BFFF759
:1042A000C0FCC4E900010BE053EC192B51EC100BDE
:1042B000FFF7B7FC53EC182BFFF7B3FCC4E9000180
:1042C0000120C8E7FFF70CFC41EC100BBD4208D001
:1042D00053EC1B2B51EC100BFFF702FCC4E900015F
:1042E0000BE053EC192B51EC100BFFF7F9FB53ECDF
:1042F000182BFFF7F5FBC4E900014FF0FF30AAE7E8
:10430000C348A84279DB9DED120B51EC100B00F075
:10431000B5FB41EC180B9FEDC00B53EC102BFFF7D6
:1043200086FC9FEDBF1B53EC112BFFF7D9FBFFF76A
:1043300070FD0746FFF75CFD41EC190B53EC1A2B9F
:10434000FFF775FC53EC182BFFF76EFC41EC180BD4
:1043500053EC1B2B51EC190BFFF769FCDFF8C8A2DB
:1043600041EC100B4FEA15580125FA4453EC102B81
:1043700051EC180BFFF755FC032DC4E900013DD0AB
:10438000C1F30A5005EB4511A8EB00001139814239
:1043900034DA0AEB051BB0EE48AA9BED000BF0EEF9
:1043A00068AA53EC102B51EC190BFFF740FC41ECC1
:1043B0001B0B51EC1A0B53EC1B2BFFF732FC41EC9F
:1043C000180B51EC1A0B53EC182BFFF72AFC53EC8B
:1043D0001B2BFFF726FC9BED020B41EC1A0B53EC59
:1043E000102B51EC190BFFF722FC53EC1A2BFFF7A3
:1043F00018FC41EC100B6D1CB8E70EE0002EA8BFB6
:104400003846BFF628AF94ED000B51EC100B81F04D
:104410000041C4E9000178421DE7C6F3130040F4EF
:10442000801EC6F30A50A0F2F530471100F01F05B8
:10443000C5F12000DDF848B00890002006900790F4
:104440000520EC467949002D07EB0002794408BFAE
:1044500051F8221009D051F8223001EB8201AB4013
:104460004A68089922FA01F11943A1FB0E26A1FB23
:104470000B131A449A4234BF0123002303EB0608AE
:104480000CEB8003D3E901A60E448E4234BF012118
:10449000002192448A4411B1924502D903E0924529
:1044A00001D2012100E00021C3E901A641444CF8FA
:1044B0002010011EA0F10100C4DC029800F10050A0
:1044C000850F0298DDE903678000DDF81480FFF7AF
:1044D0008FFC41EC1A0B3046FFF7F2FD9FED541BA9
:1044E00053EC112BFFF7A3FB41EC1B0B3846FFF7F6
:1044F000E7FD9FED511B53EC112BFFF798FB41ECAF
:10450000180B4046FFF7DCFD9FED4D1B53EC112BC4
:10451000FFF78DFB41EC190B51EC180B53EC192BE9
:10452000FFF7DEFA53EC1B2BFFF7DAFA53EC1A2BEA
:10453000FFF7D6FACDE90801002008909DED080BA1
:1045400053EC1A2B51EC100BFFF76BFB53EC1B2BAE
:10455000FFF767FB53EC182BFFF763FB53EC192BAA
:10456000FFF762FB9FED381B53EC112BFFF75FFB4E
:104570009FED370B41EC180B53EC102B9DED080B06
:1045800051EC100BFFF753FB53EC182BFFF7A8FA75
:104590009FED310B41EC180B53EC102B9DED080BEC
:1045A00051EC100BFFF743FB53EC182BFFF798FA75
:1045B00041EC100B139810F0004F06D06D4251ECF7
:1045C000100B81F0004141EC100B284684ED000BEC
:1045D00041E60000000000000000000000000000B4
:1045E000FB21E93F7CD9024000004054FB21F93F08
:1045F0003163621A61B4D03DFB21F93F0000000035
:104600000000601A61B4D03D7370032E8A19A33B79
:10461000FB2139410000000083C8C96D305FE43FD1
:10462000000000000000E03F5A070000A80600005C
:10463000000000000000103E000000000000103CE0
:10464000000000000000103A182D4454FB21F93DF1
:104650003326A611460B113C00000054FB21F93D06
:1046600010B52DED040B2DED088B82B0B0EE419A04
:10467000F0EE619A0B9820F000449FED4BABB4F143
:10468000795F11DA9DED0A0B51EC100BFFF7C1FBBE
:10469000002801BFB0EE4A0AF0EE6A0A02B0BDEC93
:1046A000088B04BF04B010BD9DED0A0B53EC102B1A
:1046B00051EC100BFFF7BBFA41EC180B3C480621FC
:1046C000B0EE480AF0EE680A784400F081F853EC46
:1046D000182B51EC100BFFF7AAFA9DED0A0B41ECD9
:1046E0001B0B53EC192B51EC100BFFF7A0FA41EC0C
:1046F000190B53EC1B2B51EC180BFFF798FA53ECEA
:10470000192BFFF78EFA9FED2C0B41EC190B53EC94
:10471000102B51EC180BFFF78AFA41EC100B2848CC
:10472000844210DA53EC192B51EC100BFFF779FA95
:1047300053EC1A2BFFF778FA41EC100B02B0BDECEA
:10474000088B04B010BD1F48A042BCBF9FED1E1BCC
:104750008DED001B06DBA4F50010019000200090F9
:104760009DED001B51EC100B53EC112BFFF759FA88
:104770009DED000B41EC180B53EC102B51EC1A0B78
:10478000FFF74FFA41EC1A0B53EC192B51EC180BB5
:10479000FFF747FA53EC1A2BFFF746FA41EC100BE0
:1047A000CCE7000000000000000000000000F03F27
:1047B000CC03000000000000000000000000E03F0B
:1047C0003333D33F0000E93F000000000000D23F38
:1047D00070B504462DED028B4D1E00EBC500B0EE0A
:1047E000408AF0EE608A90ED000B35F0060017D09D
:1047F00053EC182B51EC100BFFF719FA41EC100B8E
:104800006D1E04EBC50090ED001B51EC100B53EC3A
:10481000112BFFF765F941EC100B35F00600E7D1DD
:10482000022D36D0042D1CD0062D1CBFBDEC028BF2
:1048300070BD53EC182B51EC100BFFF7F8F994ED09
:104840000A1B53EC112BFFF74BF953EC182BFFF716
:10485000EEF994ED081B53EC112BFFF741F941ECF5
:10486000100B53EC182B51EC100BFFF7E0F994ED03
:10487000061B53EC112BFFF733F953EC182BFFF702
:10488000D6F994ED040B53EC102BFFF729F941EC0A
:10489000100B53EC182B51EC100BFFF7C8F994EDEB
:1048A000021B53EC112BFFF71BF953EC182BFFF7EE
:1048B000BEF994ED001B53EC112BFFF711F9BDEC81
:1048C000028B41EC100B70BD31B504462DED040B8D
:1048D0002DED0A8BB0EE41BAF0EE61BA0B989DED6A
:1048E0000A0B20F00040B0F1795F0DDA51EC100BAB
:1048F000FFF71EFC042808BF00F09AF89DED0A0B94
:10490000BDEC0A8B05B030BD53EC102B51EC100BF5
:10491000FFF78DF941EC180B9DED0A0B53EC182BAA
:1049200051EC100BFFF783F941EC190B2C48B0EE5A
:10493000480AF0EE680A05217844FFF749FF9FED29
:104940002ACBB0EE40AAF0EE60AA9CB353EC1C2B2D
:1049500051EC190BFFF76BF941EC1C0B53EC1A2BC4
:1049600051EC190BFFF763F99FED210B41EC190B8B
:1049700053EC102B51EC1B0BFFF759F953EC192B8F
:10498000FFF74FF953EC182BFFF751F953EC1B2BA2
:10499000FFF747F953EC1C2BFFF743F99DED0A1B7A
:1049A00053EC112BFFF740F9BDEC0A8B05B041EC3D
:1049B000100B30BDFFE753EC1A2B51EC180BFFF72F
:1049C00036F953EC1C2BFFF78BF853EC192BFFF740
:1049D0002EF99DED0A1B53EC112BFFF781F8E3E74D
:1049E0005402000000000000495555555555C5BFFB
:1049F000000000000000E03F10B553EC102B51EC1C
:104A0000100BFFF76DF841EC100B10BD000000001B
:104A10009FED050B10B553EC102B51EC100BFFF76D
:104A200078F941EC100B10BD000000000000000000
:104A30009FED050B10B553EC102B51EC100BFFF74D
:104A4000F6F841EC100B10BD000000000000001053
:104A500002E008C8121F08C1002AFAD17047704747
:104A6000002001E001C1121F002AFBD170470000A5
:104A700001490860704700008C04002082B0CDE935
:104A8000000121F0004001909DED000B02B051ECBF
:104A9000100B7047000000004C5555555555A53F6B
:104AA0007751C1166CC156BF9015CB19A001FA3EC3
:104AB000AD529C804F7E92BEC4B1B4BD9EEE213EED
:104AC000D43888BEE9FAA8BD00004054FB21F93F64
:104AD0003163621A61B4D03D0000601A61B4D03D08
:104AE0007370032E8A19A33B0000002E8A19A33B82
:104AF000C14920259A837B39000000000000000096
:104B00006E83F9A22915444ED15727FCC0DD34F538
:104B1000999562DB4190433CAB6351FE61C5BBDEBE
:104B20003A6E24B7E0D24D42EA2E49061C92D109D2
:104B30001CEB1DFE3EA729B1F53582E88444BB2E4F
:104B400026709CE9417E5FB439D69139F43953839C
:104B50008B5F849C3B28F9BDFF97F81F0F9805DEFB
:104B60008B112FEF1F6D0A5ACF7E366DB709CB27F9
:104B7000663F464F2DEA5F9EC7BA27757BF1E5EB8E
:104B8000F739073DEA92528AB15FFB6B085D8D1FD2
:104B9000A6F810111111813FD561C119A0012ABFDA
:104BA0007DFEB157E31DC73EEB9C2B8AE6E55ABE5E
:104BB0007CD5CF5A3AD9E53DD84B000800000020FB
:104BC00090040000DA400008FC4F00089004002028
:104BD00048070000604A0008412D01020304041543
:104BE0000607080984BD0105791401150340803FBB
:104BF000175680803BD37F10183C77BE403CCF7D5A
:104C0000803C5B9BA03CA6B7C03C6ED2E03CB77535
:104C100000FF003D3581103D918B203DAB94303D30
:104C2000609C403D92A2503D25A7603DF1A9703D9A
:104C30006F55803DE354883D4753903D8C50983DDF
:104C40009F4CA03D7247A83DF740B03D1B39B83D91
:104C5000D22FC03D0C25C83DB218D03DC60AD83D64
:104C60002DFBDF3DD9E9E73DB0D6EF3DBEC1F73DB5
:104C7000DBAAFF3D04C9033E95BB073E20AD0B3EBA
:104C8000979D0F3EF58C133E397B173E56681B3EB1
:104C90003E541F3EF83E233E7728273EB4102B3E5D
:104CA000A1F72E3E45DD323E93C1363E7DA43A3E0D
:104CB0000A863E3E2766423ED844463E12224A3E7F
:104CC000C7FD4D3EFED7513EAFB0553EC687593E5B
:104CD0004B5D5D3E3731613E7C03653E1AD4683ED4
:104CE0000AA36C3E4770703EC83B743E8805783E10
:104CF00086CD7B3EB5937F3E0EAC813E538D833E89
:104D0000AE6D853E164D873E8D2B893E0F098B3E3D
:104D10009900FF00E58C3E2BC18E3EC19B903E5416
:104D200075923EE94D943E7B25963E07FC973E8B5F
:104D3000D1993E02A69B3E6F799D3ECD4B9F3E1C76
:104D40001DA13E57EDA23E7FBCA43E8D8AA63E84A7
:104D500057A83E6223AA3E23EEAB3EC2B7AD3E4506
:104D600080AF3EA447B13EE20DB33EF9D2B43EE976
:104D700096B63EB159B83E4F1BBA3EC2DBBB3E07AA
:104D80009BBD3E1E59BF3E0416C13EBCD1C23E3F34
:104D90008CC43E8E45C63EA4FDC73E89B4C93E3391
:104DA0006ACB3EA41ECD3EDAD1CE3ED583D03E9412
:104DB00034D23E18E4D33E5A92D53E603FD73E21CE
:104DC000EBD83EA395DA3EE33EDC3EE1E6DD3E9ADB
:104DD0008DDF3E0D33E13E3AD7E23E227AE43EC516
:104DE0001BE63E1BBCE73E2F5BE93EF7F8EA3E764A
:104DF00095EC3EA930EE3E93CAEF3E3563F13E8618
:104E0000FAF23E8F90F43E4925F63EB9B8F73EDA05
:104E10004AF910143EAFDBFA3E386BFC3E71F9FDE7
:104E20003E5A86FF3EFC8800FF003F234E013FA212
:104E300012023F7BD6023FAC99033F365C043F171A
:104E40001E053F51DF053FE39F063FCE5F073F1240
:104E50001F083FADDD083FA29B093FEF580A3F9472
:104E6000150B3F93D10B3FE98C0C3F9A470D3FA2A6
:104E7000010E3F03BB0E3FBF730F3FD32B103F41CB
:104E8000E3103F089A113F2A50123FA405133F79BF
:104E9000BA133FA86E143F3322153F18D5153F575C
:104EA00087163FF138173FE7E9173F389A183FE771
:104EB00049193FEFF8193F55A71A3F18551B3F37BF
:104EC000021C3FB3AE1C3F8E5A1D3FC4051E3F5A05
:104ED000B01E3F4E5A1F3FA103203F52AC203F63FC
:104EE00054213FD3FB213FA4A2223FD548233F6753
:104EF000EE233F5A93243FAD37253F63DB253F7AAE
:104F00007E263FF420273FD2C2273F1364283FB7B5
:104F100004293FBFA4293F2C442A3FFEE22A3F3305
:104F2000812B3FD11E2C3FD238CFBB2C3F3C582D7C
:104F30003F0CF42D3F438F2E3FE1292F3FE9C32F34
:104F40003F595D303F33F6303F758E313F21263279
:104F50003F39BD323FBB53333FA9E9333F027F3472
:104F60003FC713353FF9A7353F993B363FA6CE36AD
:104F70003F2161373F0BF3373F6484383F2E1539AB
:104F80003F65A5393F0F353A3F2AC43A3FB4523BFB
:104F90003FB3E03B3F226E3C3F06FB3C3F5D873D1D
:104FA0003F26133E3F679E3E3F1A293F3F44B33F93
:104FB0003FE43C403FF9C5403F864E413F89D641E2
:104FC0003F065E423FFAE4423F676B433F4FF14387
:104FD0003FB076443F8CFB443FE27F453FB40346FD
:104FE0003F0187463FCB09473F138C473FD70D48CA
:0C4FF0003F198F483FDD0F4904011400F9
:040000050800018965
:00000001FF
